:020000040800F2
:1000000030340020290200083102000833020008C1
:10001000350200083702000839020008000000001D
:100020000000000000000000000000009101000836
:100030003D02000800000000D5010008AD060008E0
:10004000430200084302000843020008430200087C
:10005000430200084302000843020008430200086C
:10006000430200084302000843020008430200085C
:10007000430200084302000843020008430200084C
:10008000430200084302000843020008430200083C
:10009000430200084302000843020008430200082C
:1000A000430200084302000843020008430200081C
:1000B000430200084302000843020008430200080C
:1000C00043020008430200084302000843020008FC
:1000D00043020008430200084302000843020008EC
:1000E00043020008430200084302000800F002F83F
:1000F00000F03AF80AA090E8000C82448344AAF188
:100100000107DA4501D100F02FF8AFF2090EBAE885
:100110000F0013F0010F18BFFB1A43F0010318473B
:100120003026000050260000103A24BF78C878C15D
:10013000FAD8520724BF30C830C144BF04680C60ED
:10014000704700000023002400250026103A28BF35
:1001500078C1FBD8520728BF30C148BF0B60704739
:100160001FB51FBD10B510BD00F049F9114603B40D
:1001700000F04EFB03BCFFF7F3FF00F0E7FB00F0DD
:1001800063F903B4FFF7EEFF03BC00F06BF9000066
:10019000224B19680868B0E8F00F80F30988BFF3B4
:1001A0006F8F4FF0000080F311884EF00D0E7047F6
:1001B0000000000006480068006880F3088862B606
:1001C00061B6BFF34F8FBFF36F8F00DF00BF00BF7B
:1001D00008ED00E0EFF30980BFF36F8F0F4B1A6853
:1001E00020E9F00F106008B54FF0100080F311887F
:1001F000BFF34F8FBFF36F8F01F0AEFC4FF00000E5
:1002000080F31188BDE8084019680868B0E8F00F6D
:1002100080F30988BFF36F8F704700BF380000205C
:10022000EFF3058070470000094880470948004700
:10023000FEE7FEE7FEE7FEE7FEE7FEE7FEE7FEE796
:10024000FEE7FEE704480549054A064B70470000F3
:10025000C5060008ED000008302E002030340020D4
:100260003030002030300020032A40F2308010F07F
:10027000030C00F0158011F8013BBCF1020F624441
:1002800098BF11F801CB00F8013B38BF11F8013BD2
:10029000A2F1040298BF00F801CB38BF00F8013B7F
:1002A00011F0030300F02580083AC0F0088051F8EF
:1002B000043B083A51F804CBA0E80810F5E7121DFA
:1002C0005CBF51F8043B40F8043BAFF30080D20719
:1002D00024BF11F8013B11F801CB48BF11F8012BE5
:1002E00024BF00F8013B00F801CB48BF00F8012B08
:1002F000704710B5203AC0F00B80B1E81850203A92
:10030000A0E81850B1E81850A0E81850BFF4F5AFB5
:100310005FEA027C24BFB1E81850A0E8185044BF3F
:1003200018C918C0BDE810405FEA827C24BF51F8AC
:10033000043B40F8043B08BF7047D20728BF31F8A0
:10034000023B48BF11F8012B28BF20F8023B48BFF1
:1003500000F8012B704702F0FF0343EA032242EA50
:10036000024200F005B87047704770474FF0000236
:100370000429C0F0128010F0030C00F01B80CCF1B7
:10038000040CBCF1020F18BF00F8012BA8BF20F825
:10039000022BA1EB0C0100F00DB85FEAC17C24BF79
:1003A00000F8012B00F8012B48BF00F8012B704723
:1003B0004FF0000200B5134694469646203922BFFE
:1003C000A0E80C50A0E80C50B1F12001BFF4F7AF49
:1003D000090728BFA0E80C5048BF0CC05DF804EB2B
:1003E000890028BF40F8042B08BF704748BF20F899
:1003F000022B11F0804F18BF00F8012B7047754693
:1004000000F02CF8AE4605006946534620F0070080
:10041000854618B020B5FFF715FFBDE820404FF026
:1004200000064FF000074FF000084FF0000B21F0DE
:100430000701AC46ACE8C009ACE8C009ACE8C009AB
:10044000ACE8C0098D46704710B50446AFF3008094
:100450002046BDE81040FFF794BE000000487047FA
:10046000CC2D002001491820ABBEFEE7260002007B
:1004700070472DE9F04102460025002600200023A8
:100480000024002791F803C00CF00F0591F803C079
:100490000CF0100CBCF1000F03D091F802C04CEA34
:1004A000050591F800C0BCF1000F31D014680020A0
:1004B0002BE04FF0010C0CFA00F3B1F800C00CEA8D
:1004C00003069E4220D183004FF00F0C0CFA03F775
:1004D000BC4305FA03FC4CEA040491F803C0BCF1E8
:1004E000280F06D14FF0010C0CFA00FCC2F814C022
:1004F0000AE091F803C0BCF1480F05D14FF0010CA0
:100500000CFA00FCC2F810C0401C0828D1D31460BB
:10051000B1F800C0BCF1FF0F34DD546800202EE0BC
:1005200000F1080C4FF0010808FA0CF3B1F800C014
:100530000CEA03069E4221D183004FF00F0C0CFA07
:1005400003F7BC4305FA03FC4CEA040491F803C02A
:10055000BCF1280F05D100F1080C08FA0CF8C2F81C
:10056000148091F803C0BCF1480F07D100F1080CCA
:100570004FF0010808FA0CF8C2F81080401C082857
:10058000CED35460BDE8F0810246002093680B4052
:100590000BB1012000E0002070474161704701610C
:1005A0007047000029B1064A92690243044B9A61E0
:1005B00004E0034A92698243014B9A61704700004C
:1005C0000010024010B500F001F810BD0CB500207D
:1005D000019000903348006840F480303149086051
:1005E00000BF3048006800F4003000900198401CC3
:1005F0000190009818B90198B0F5A06FF1D1294881
:10060000006800F4003010B10120009001E00020EB
:1006100000900098012843D12348006840F0100062
:10062000214908600846006820F003000860084679
:10063000006840F0020008601A48406819494860A4
:100640000846406848600846406840F4806048605A
:100650000846406820F47C1048600846406840F432
:10066000E81048600846006840F08070086000BFED
:100670000C48006800F000700028F9D00948406874
:1006800020F00300074948600846406840F0020037
:10069000486000BF0348406800F00C000828F9D10A
:1006A0000CBD0000001002400020024010B54FF0C9
:1006B000E020006901F0BAFD012801D001F0BEFA86
:1006C00010BD000010B51348006840F0010011494A
:1006D000086008464068104908400E4948600846CE
:1006E00000680E4908400B4908600846006820F47D
:1006F000802008600846406820F4FE0048604FF4FF
:100700001F008860FFF75EFF4FF00060044908603B
:1007100010BD0000001002400000FFF8FFFFF6FED1
:1007200008ED00E070B50546284600F0CBFF044612
:1007300014B1D4E90010884770BDEFF31180704701
:10074000EFF305807047EFF31080704710B5044653
:1007500000F04EFA20B14FF0FF31206801F078FC34
:1007600010BD000070B50546286801F0DDF80024D2
:100770000BE0084951F824102868884204D1002071
:10078000044941F8240002E0641C052CF1D300BFA9
:1007900070BD00003404002070B5054600202860BC
:1007A000002415E0124850F8240080B904EB8400BE
:1007B000104A02EB0011012001F06BFA0C4941F8DC
:1007C0002400084650F824002860012070BD641CF5
:1007D000052CE7D300F00CFA18B1012001F048FA1B
:1007E0002860286808B90020F0E70120EEE7000043
:1007F00034040020A402002010B5044600F0F8F9EB
:1008000028B100231A461946206801F0CFFA10BD1E
:10081000704770B504460D46204600F091F800B1CF
:1008200070BDE06810B1012819D113E0204600F036
:1008300053F886B231462846FFF7AFFE204600F057
:1008400010F886B231462846FFF7A9FE204600F090
:10085000A3F8E5E72946204600F050FFE0E700BF97
:10086000DEE710B504462046616800F001F810BDCF
:100870002DE9F04104460D46204600F035F80646C5
:1008800095FBF6F006FB1050216851F82080A06817
:1008900000F08FF807463A463146284600F007F840
:1008A000216851F8200048EA0000BDE8F08110B549
:1008B000034612B1012A0DD105E0581C90FBF1F45A
:1008C00001FB140010BDC818401E90FBF1F401FBA1
:1008D0001400F7E70020F5E710B504466068411EF4
:1008E0002046FFF7C5FF10BD0146012070470000FC
:1008F00070B504462546284600F08CF90249284682
:10090000FFF787FF70BD00000008014010B500F040
:1009100001F810BD08B501210820FFF743FE1020A3
:100920008DF8030002208DF8020041F2A540ADF8D9
:10093000000069460148FFF79CFD08BD0008014022
:100940000146087C704701210174704710B58CB0D6
:100950000F4B0FCB08AC0FC41C220D49103101A85E
:10096000FFF7C7FC08A8019001AA0121094800F07F
:10097000A3F80446FFF7CAFF00F044F832212046EE
:1009800000F00CF900F05EF800200CB010BD000083
:10099000242700081027000830B504462046FFF73A
:1009A000A3FF05462946D4E90102FFF780FF6060F6
:1009B00030BD014611B1012904D101E00120704789
:1009C0000020FCE74FF0FF30F9E7000070B5054666
:1009D000FFF7B6FE48B9FFF7B6FE10B9FFF7ADFE58
:1009E00030B107480068022802D16FF0050404E026
:1009F000002415B1284600F0C7FF204670BD000056
:100A00000400002010B5FFF79BFE48B9FFF79BFEDE
:100A100010B9FFF792FE30B109480068022802D1F0
:100A20006FF0050409E00648006820B90120044978
:100A30000860002401E04FF0FF34204610BD0000A4
:100A40000400002070B5FFF77BFE48B9FFF77BFE7E
:100A500010B9FFF772FE30B114480068022802D1C5
:100A60006FF005041FE011480068012819D100BF8C
:100A7000801F0021002804DB0A07130E0C4A1354C0
:100A800006E00A07150E0B4A00F00F031B1FD55492
:100A900000BF00BF02200549086001F00BF80024E8
:100AA00001E04FF0FF34204670BD0000040000203C
:100AB00000E400E018ED00E070B504460D4616466F
:100AC0000CB9002070BD231D32462946206800F075
:100AD00001F8F7E72DE9FE4F0646894692461C4687
:100AE00000200290FFF72CFE00284FD1FFF72BFECD
:100AF00010B9FFF722FE18B126480068022845D039
:100B0000002E43D0082000F065FD0546002D3DD0A5
:100B10002E60C5F804A0B9F1000F01D1002700E054
:100B200001274FF0FF384FF0000B94B1206808B157
:100B3000D4F800B0A06828B1E0682C2802D34FF0A8
:100B4000010808E0A06830B9E06820B94FF000085B
:100B500001E04FF00008B8F1010F0BD10E49A06879
:100B60002B463A46CDE900100121584601F051FDCF
:100B700002900BE0B8F1000F08D107482B463A4627
:100B800001210090584601F029FD02900298BDE82D
:100B9000FE8F00000400002025070008F8B5054678
:100BA0000E462F46FFF7CCFD48B9FFF7CCFD10B934
:100BB000FFF7C3FD30B10D480068022802D16FF085
:100BC000050411E017B96FF003040DE0002003469F
:100BD000324604210090384601F064FD012801D11D
:100BE000002401E06FF002042046F8BD040000205C
:100BF00010B50748007848B901F018FB012803D068
:100C000001200349087010BD0020FCE70120FAE72D
:100C10000000002010B504464FF480610E48FFF735
:100C2000B3FC20B10121204600F0A4FD03E0002127
:100C3000204600F09FFD4FF480510748FFF7A4FCC9
:100C400020B10121204600F0A1FD03E00021204653
:100C500000F09CFD10BD0000000801402DE9F041AE
:100C600005460E461648076816480068001D00F045
:100C70009CFD681C38B936B112480168091D12483C
:100C800000F0EBFD1AE07C190E4800684460BC429D
:100C900007D20C480168091D0C48006800F0C3FD2C
:100CA0000CE008480168091D0948006800F0BBFD18
:100CB00008480068844201D206480460BDE8F0811B
:100CC0004C00002038000020F02C002040000020C4
:100CD0003C0000206800002010B5044600F0CAFD6A
:100CE00024480068401C234908602348006840B934
:100CF000214804600846006801280DD100F000FA80
:100D00000AE01E48006838B91B480068C06AE16AFA
:100D1000884201D81848046019480068401C1849E6
:100D200008600846006860641649E06A09688842FD
:100D300002D91449E06A0860E16A01EB8101124AB4
:100D400002EB8100211D00F088FD00F0A5FD0B489D
:100D5000006868B108480068C06AE16A884207D242
:100D60004FF0805009490860BFF34F8FBFF36F8F7A
:100D700010BD000048000020380000205400002072
:100D800064000020500000204028002004ED00E016
:100D900008B500F06FFD0E480068A8B90D4800F0D6
:100DA00032FD0D4800F02FFD0A480C4908600A4842
:100DB0000B49086000200B4B0B4A102100900520C6
:100DC00000F09CFF0249086000F066FD08BD0000CD
:100DD0007C000020042D0020182D0020740000202D
:100DE000780000202C2D00207C2D002010B516E06E
:100DF00000F040FD0C48C068C468201D00F0D5FC20
:100E00000A480068401E0949086009480068401EF9
:100E10000749086000F040FD204600F05FF80448F4
:100E200000680028E4D110BDDC2C00204800002020
:100E30004400002070B504460D46206C70B1216C52
:100E4000E0680144E160D4E90210884201D32168DE
:100E5000E1602846226CE168FFF706FA70BD2DE9D3
:100E6000F04104460F4615464FF00008A66B206C73
:100E700048B9206800282CD1A06801F079FA804692
:100E80000020A06025E07DB93946226C6068FFF73C
:100E9000EBF9216C606808446060D4E90101884284
:100EA00017D32068606014E03946226CE068FFF7D1
:100EB000DBF9216CE068411AE1602168E068884252
:100EC00003D2216CA068411AE160022D01D106B164
:100ED000761E701CA0634046BDE8F08110B5044644
:100EE00094F8590030B9206B00F0E6FC204600F081
:100EF000E3FC06E094F85900012802D1204600F0F6
:100F0000DBFC10BD01464A6A22B10A6B1268C2F1CD
:100F1000380000E0002070470146084A1268126855
:100F20000AB9012200E000220A600A6822B9034AD5
:100F30001268D268106800E000207047740000203A
:100F400030B54FF40053174800F007042CB1C01D12
:100F500020F00700134C041B1B1B0246124C22609E
:100F60000024114D6C60D018083820F007000F4C99
:100F7000206000240D4D2D686C600C4D2D682C6098
:100F80001146441A4C60094C24680C60084D4C68AA
:100F90002C60084D4C682C604FF00044064D2C60CE
:100FA00030BD0000400800201C000020240000206C
:100FB0002C000020280000203000002000BFFFF798
:100FC00015FF064800680128F9D94FF08050044900
:100FD0000860BFF34F8FBFF36F8FF0E7402800200A
:100FE00004ED00E010B5044654B10020A06020607C
:100FF0000021E16000231A461946204600F0D6FE83
:1010000010BD2DE9F04106460D4617469846069C50
:101010000DB9246000E02760E663256401212046C5
:1010200000F084FE84F84C80BDE8F0812DE9F05F8B
:1010300081460E4690469A460A9F0C9C4FEA8801CC
:10104000A522206BFFF787F9A8F10100216B01EBC6
:10105000800B2BF0070B86B1002507E0715D04F1D2
:1010600034004155705D00B902E06D1C102DF5D3C0
:1010700000BF00214320015502E0002084F8340025
:10108000382F00D33727E762E76400202065201D52
:1010900000F0C6FB04F1180000F0C2FB2461C7F1A8
:1010A0003800A06164620020606584F858005246F0
:1010B0004946584600F010FB20600B9808B10B9889
:1010C0000460BDE8F09F2DE9F04705460E4617463F
:1010D0009846DDE908948CB1FFF75AFE2560A661B9
:1010E000C4F81C80C4F82090201D00F099FB2FB19B
:1010F00094F8280040F0040084F82800BDE8F08748
:1011000010B5002407E004EB84010F4A02EB8100D4
:1011100000F079FB641C382CF5D30C4800F073FB0D
:101120000B4800F070FB0B4800F06DFB0A4800F024
:101130006AFB0A4800F067FB044809490860044854
:101140000849086010BD000040280020A02C0020A5
:10115000B42C0020C82C0020DC2C0020F02C002017
:101160003C0000204000002010B50146164800E079
:10117000006803688B42FBD30246436813448B42EA
:1011800004D143684C682344436001460A464B68D7
:1011900013440468A34211D10C4C03682468A34291
:1011A00008D04B680468646823444B6003681B687C
:1011B0000B6005E0054B1B680B6001E003680B60EA
:1011C000884200D0016010BD1C00002024000020D7
:1011D0002DE9F04104460D4616461F464FF0000823
:1011E00065602461B5420CD8F01BA169884202D326
:1011F0004FF0010811E0211D0948006800F013FBC1
:101200000BE0BE4204D2BD4202D34FF0010804E01D
:10121000211D0448006800F006FB4046BDE8F0814F
:10122000780000207400002070B5054600F022FB15
:10123000A86B08B9012400E0002400F02DFB204633
:1012400070BD70B5054600F015FBA86BE96B8842D0
:1012500001D1012400E0002400F01EFB204670BDF7
:10126000F8B505460E4614480068C068C468201DDD
:1012700000F09BFA94F8280000F0040088B1A069FF
:1012800041192B4632462046FFF7A2FF78B10020D5
:1012900003462A4601460090204601F003FA07461D
:1012A00005E094F8280020F0010084F8280020468A
:1012B000216A8847F8BD000074000020F0B587B0AF
:1012C00076E00398002805DA04AED6E90020B1687C
:1012D000904700BF039800286ADB059C606908B945
:1012E000012000E0002010B9201D00F05EFA02A8E5
:1012F00000F0BEF8054603980A2857D2DFE800F050
:101300000905072D354606082E3600BF00BF00BF71
:1013100000BF94F8280040F0010084F828000498E9
:10132000A269811803462A462046FFF751FF98B16B
:101330002046216A884794F8280000F0040058B13C
:10134000002000900498A169421800231946204605
:1013500001F0A8F9074600BF29E000BF94F8280073
:1013600020F0010084F8280021E000BF94F8280054
:1013700040F0010084F828000498A061A069411998
:101380002B462A462046FFF723FF10E094F828005A
:1013900000F0020018B9204600F08EFA05E094F83B
:1013A000280020F0010084F8280000E000BF00BF02
:1013B000002203A90348006800F0C8FD002880D17E
:1013C00007B0F0BD7C000020F8B505460C4600F0E3
:1013D000BBFB684600F04CF80646009820BB44B9B9
:1013E000B54206D801F086F831462846FFF738FFA7
:1013F0001CE03CB10E480068006808B9012000E01C
:1014000000200446A91B22460A48006800F096FA0C
:1014100001F070F850B94FF0805007490860BFF3F1
:101420004F8FBFF36F8F01E001F064F8F8BD00004B
:10143000780000207C00002004ED00E00A490968E3
:10144000096809B9012100E0002121B14FF0FF3105
:10145000064A116006E004490968C968C868034A79
:1014600041681160704700003C00002068000020C7
:1014700070B5044600F0EAFE05460748006885425C
:1014800004D200F00BF80120206001E00020206071
:1014900001480560284670BD840000202DE9F8430E
:1014A00028E01E480068C06805681C480068C068DD
:1014B000C468201D00F079F92046216A884794F815
:1014C000280000F00400A8B1A0694619AE4207D96F
:1014D00066602461211D1148006800F0A4F909E04C
:1014E000002003462A4601460090204601F0DAF823
:1014F000804600BF09480068006808B9012000E084
:1015000000200028CDD00548076805480068034939
:10151000086003480760BDE8F883000074000020FD
:101520007800002000BF102080F31188BFF34F8F98
:10153000BFF36F8F00BF00BFFEE708B500BF68466E
:10154000FFF7EAFC044620460099FFF73DFFFFF74E
:10155000B5FEF4E770B5044600F08CF994F94550F7
:1015600010E0606A08B9012000E0002038B904F1F9
:10157000240000F07FFF18B100F02CFA00E003E037
:10158000681E45B2002DECDC00BFFF2084F845004A
:1015900000F082F900F06EF994F9445010E02069EF
:1015A00008B9012000E0002048B904F1100000F063
:1015B00061FF08B100F00EFA681E45B200E001E0DC
:1015C000002DECDC00BFFF2084F8440000F064F93B
:1015D00070BD00002DE9F04105464FF0000800F015
:1015E000B3FA2B48006808B9FFF7AAFC294800683D
:1015F0002840002847D145B1083505F0070020B143
:1016000005F00700C0F108000544002D3BD022483A
:101610000068854237D8214E3046046801E02646EE
:1016200024686068A84202D220680028F7D11848D0
:101630000068844227D0306800F1080820683060D4
:101640006068401B102807D967196068401B7860E4
:1016500065603846FFF788FD0F4960680968081A19
:101660000D490860084600680D490968884203D2A0
:10167000094800680A490860064960680968084323
:1016800060600020206000F035FF4046BDE8F0813A
:101690002400002030000020280000201C00002032
:1016A0002C0000200648006830B10549096801F1A6
:1016B0005000096D491C0160014800687047000036
:1016C0003800002070B50446264600F0D3F8F569CE
:1016D00000F0E2F8284670BD001F4FF080730360F1
:1016E000001F21F001030360001F034B0360143847
:1016F0000260203870470000251500082DE9F041F0
:1017000004460D462046FFF71EF90026D4E90501E0
:1017100090FBF1F201FB120028B1D4E9050190FB26
:10172000F1F0401C03E0D4E9050190FBF1F007461D
:1017300017E02046FFF7D0F81FFA80F84146284608
:10174000FEF72BFF2046FFF78CF81FFA80F8414682
:101750002846FEF724FF2046FFF71EF90520FFF775
:1017600035F93046761CB842E3DB204600F01AF823
:10177000BDE8F08100B502460B461046FFF7E0F8E1
:1017800008B1002000BD93600120FBE700B50246D0
:101790000B461046FFF7D4F808B1002000BDD36017
:1017A0000120FBE700210174704701460A69D1E975
:1017B00001309860D1E9010358605068884201D136
:1017C00088685060002008611068401E1060106832
:1017D00070470000034B0360034B0B6080231360D2
:1017E0007047000048040020A4040020034B03605D
:1017F000034B0B605023136070470000A4060020C9
:1018000000070020704700F1080141604FF0FF31F0
:10181000816000F10801C160016100210160704731
:1018200000210161704710B502460B685C1C0CB9C1
:10183000106907E002F1080000E04068446824688D
:101840009C42FAD944684C604C68A1608860416051
:101850000A611468641C146010BD42684A60936891
:101860008B60936859609160086103685B1C03603A
:101870007047000000BF102080F31188BFF34F8F26
:10188000BFF36F8F00BF03480068401C0149086028
:10189000704700003400002006480068401E0549DB
:1018A00008600846006820B9002080F3118800BF56
:1018B00000BF70473400002070B506463546D6B1EB
:1018C000083D2C460C4960680968084098B12068BA
:1018D00088B90949606809688843606000F034F994
:1018E0000649606809680844044908602046FFF713
:1018F0003BFC00F0FFFD70BD300000202800002000
:1019000000204FF0E02108618861064800684FF42C
:101910007A71B0FBF1F0401E4FF0E02148610720E2
:10192000086170470800002070B50446254695F808
:10193000460010B92846FFF7BFFF70BD2DE9F04102
:1019400005460E4617462C46FFF794FF94F94400CF
:10195000401C10B9002084F8440094F94500401C54
:1019600010B9002084F84500FFF796FFA06B28B956
:101970003A46314604F1240000F042F82046FFF7D1
:10198000E9FDBDE8F081000070B50446002544B1D2
:1019900000F0DAF800212046FFF760F900F0AAFD18
:1019A00005463DB94FF0805003490860BFF34F8FA3
:1019B000BFF36F8F70BD000004ED00E003490968BC
:1019C0000160034909684160704700006000002021
:1019D0004C00002001200149086070475C00002095
:1019E00070B505460C460548016818312846FFF7D2
:1019F0001AFF01212046FFF731F970BD38000020A1
:101A000070B506460D461446064801681831304642
:101A1000FFF723FF0CB14FF0FF3521462846FFF7B3
:101A20001DF970BD380000202DE9F04706460F462D
:101A300034464FF00109002E35D0E06CB84201D297
:101A40003D4600E0E56CE06AA8422CD0206D0128FC
:101A500029D1D4F82C80E562A06900F0004010B9CB
:101A6000C5F13800A06108EB8801104A02EB810142
:101A70006069884201D1012000E0002098B1201D5A
:101A8000FFF793FE0A49E06A0968884202D90849CB
:101A9000E06A0860E16A01EB8101044A02EB81001F
:101AA000211DFFF7DAFEBDE8F08700004028002086
:101AB0005000002010B586B000200590049003AAC5
:101AC00004A905A8FFF786FE0022DDE904101346ED
:101AD000CDE90021029015A11648039A00F07EFB83
:101AE000154908600846006808B1012400E0002498
:101AF000012C02D100F0A6FD0446012C14D100BF38
:101B0000102080F31188BFF34F8FBFF36F8F00BF9A
:101B10004FF0FF30094908600120094908600020A2
:101B20000849086000F070F806B010BD49444C4503
:101B300000000000BD0F00086C00002068000020BD
:101B4000540000204C00002002480068401C01495D
:101B5000086070477000002070B52648006818B112
:101B600001202549086043E00020234908602348FC
:101B70000068046B4FF0A5352068B0F1A53F0BD18C
:101B80006068B0F1A53F07D1A068B0F1A53F03D1CF
:101B9000E068B0F1A53F05D018480168343100680D
:101BA000FFF730FE1648016800E0491E01EB810096
:101BB000144A52F8200008B9012000E00020002853
:101BC000F3D101EB81020F4B03EB820042685268B4
:101BD000426000F108024368934202D142685268B1
:101BE00042604268D268054B1A600548016000BF38
:101BF00070BD0000700000205C0000203800002054
:101C0000500000204028002010B50A48006840F429
:101C10007F00084908600846006840F07F4008607F
:101C2000FFF76EFE002004490860FEF7C3FA0020AB
:101C300010BD000020ED00E03400002010B500BF12
:101C4000102080F31188BFF34F8FBFF36F8F00BF59
:101C500000F002FB18B14FF080500449086000BF4B
:101C6000002080F3118800BF10BD000004ED00E0EB
:101C70002DE9F041044601260027224600210120DB
:101C800000F01CF805462846FFF7ACF92846BDE8E9
:101C9000F0812DE9F84304460D4601274FF0000876
:101CA0002B46002211460120009400F027F806463A
:101CB0003046FFF797F93046BDE8F8832DE9F84341
:101CC00007460D4690460DB9002601E007FB05F6D4
:101CD00006F15000FFF77EFC044664B1A14609F10D
:101CE0005009002084F8460043464A4629463846B3
:101CF0000094FFF786F92046BDE8F8832DE9F84304
:101D000006460F4690461D46DDF820902C464CB105
:101D1000012084F846004B4642463946304600943E
:101D2000FFF76FF92046BDE8F883000070B505465F
:101D30000E462C46FFF79EFDD4E90F12206801FBEA
:101D40000200A0600020A06320686060E06B401E7D
:101D5000226C216800FB0211E160FF2084F844003E
:101D600084F845009EB9206908B9012000E00020F0
:101D7000A8B904F1100000F07DFB80B14FF0805055
:101D800009490860BFF34F8FBFF36F8F07E004F17D
:101D90001000FFF738FD04F12400FFF734FDFFF7D2
:101DA0007BFD012070BD000004ED00E02DE9FF4344
:101DB00083B0074688461D464FF000093C4600BFE9
:101DC000FFF758FDA06BE16B884201D3022D28D1AB
:101DD0002A4641462046FFF742F80646606A08B99F
:101DE000012000E0002068B904F1240000F042FB6B
:101DF00088B14FF0805032490860BFF34F8FBFF376
:101E00006F8F08E03EB14FF080502D490860BFF35E
:101E10004F8FBFF36F8FFFF73FFD012007B0BDE885
:101E2000F083059818B9FFF737FD0020F6E7B9F100
:101E3000000F04D101A8FFF7C1FD4FF00109FFF722
:101E40002BFDFFF781FEFFF715FD94F94400401CC0
:101E500010B9002084F8440094F94500401C10B9E2
:101E6000002084F84500FFF717FD05A901A800F040
:101E700087F9F0B92046FFF7E4F9A0B104F11000AA
:101E80000599FFF7ADFD2046FFF764FB00F032FB3C
:101E9000002895D14FF0805009490860BFF34F8F5B
:101EA000BFF36F8F8CE72046FFF754FB00F022FB57
:101EB00086E72046FFF74EFB00F01CFB0020ADE755
:101EC00004ED00E02DE9F05F05468A4616461F4600
:101ED0002C4600BF1021EFF3118081F31188BFF36E
:101EE0004F8FBFF36F8F00BF8146A06BE16B8842BD
:101EF00001D3022F20D194F945B03A4651462046ED
:101F0000FEF7ADFF0BF1010070B9606A08B901205E
:101F100000E0002068B904F1240000F0ABFA40B101
:101F20003EB10120306004E00BF1010040B284F8C2
:101F300045004FF0010801E04FF0000800BF89F3B1
:101F4000118800BF4046BDE8F09F00002DE9F74131
:101F500083B005460F464FF000082C4600BFFFF740
:101F600089FCA66BF6B139462046FEF763FF701E6A
:101F7000A063206908B9012000E0002060B904F1E5
:101F8000100000F077FA38B14FF080502F49086008
:101F9000BFF34F8FBFF36F8FFFF77EFC012006B0BA
:101FA000BDE8F081059818B9FFF776FC0020F6E748
:101FB000B8F1000F04D101A8FFF700FD4FF00108B0
:101FC000FFF76AFCFFF7C0FDFFF754FC94F94400EB
:101FD000401C10B9002084F8440094F94500401CCE
:101FE00010B9002084F84500FFF756FC05A901A8A8
:101FF00000F0C6F8F0B92046FFF716F9A0B104F1D9
:1020000024000599FFF7ECFC2046FFF7A3FA00F047
:1020100071FA0028A3D14FF080500C490860BFF33B
:102020004F8FBFF36F8F9AE72046FFF793FA00F0C8
:1020300061FA94E72046FFF78DFA00F05BFA20463C
:10204000FFF7F2F800288AD00020A8E704ED00E0AE
:102050002DE9F34182B0054600272C46B84600BF63
:10206000FFF708FCA66BFEB1701EA063206810B9D4
:10207000FFF718FBA060206908B9012000E00020EC
:1020800060B904F1100000F0F5F938B14FF080505C
:102090003A490860BFF34F8FBFF36F8FFFF7FCFB28
:1020A000012004B0BDE8F081039818B9FFF7F4FBF4
:1020B0000020F6E71FB96846FFF780FC0127FFF70D
:1020C000EBFBFFF741FDFFF7D5FB94F94400401C03
:1020D00010B9002084F8440094F94500401C10B960
:1020E000002084F84500FFF7D7FB03A9684600F0FD
:1020F00047F840BB2046FFF797F8F0B1206838B9A1
:10210000FFF7B8FBA06800F063F98046FFF7C4FB57
:1021100004F124000399FFF763FC2046FFF71AFA45
:1021200000F0E8F900289BD14FF080501349086077
:10213000BFF34F8FBFF36F8F92E72046FFF70AFA86
:1021400000F0D8F98CE72046FFF704FA00F0D2F946
:102150002046FFF769F8002882D0B8F1000F0BD0B5
:10216000FFF788FB2046FEF7CDFE06463146A06805
:10217000FFF75AFCFFF790FB002092E704ED00E028
:1021800070B506460C46FFF775FB1248026870688A
:10219000131A2068401C08B9002517E00E49306862
:1021A0000968884204D07068904201D801250DE08A
:1021B0002068984207D92068C01A20603046FFF78F
:1021C000FDFB002502E0002020600125FFF764FBF5
:1021D000284670BD4C000020600000202DE9F04F23
:1021E00085B00746884691469A46DDE90EB6109CB2
:1021F000ACB1A6B125462E63022085F85900002017
:1022000004A953464A46CDE900B1CDE90250414602
:102210003846FEF70BFF2846FEF75EFD01E0002082
:102220000490049805B0BDE8F08F000005490968E6
:1022300009B9012005E00449096809B9022000E054
:1022400000207047540000207000002001490868F9
:10225000704700004C0000202DE9F041002739486C
:102260000068002862D138480068451C364805607F
:102270008DB93648D0F80080354800683349086089
:102280003348C0F8008033480068401C314908607A
:10229000FFF7D4F800BF3048006885423AD300BF4A
:1022A0002A480068006808B9012000E0002020B139
:1022B0004FF0FF30284908602BE024480068C068D0
:1022C000C4686668B54202D22348066021E0201D3A
:1022D000FFF76BFAA06A18B104F11800FFF765FA6E
:1022E0001E49E06A0968884202D91C49E06A086010
:1022F000E16A01EB81011A4A02EB8100211DFFF71F
:10230000ACFA1849E06A0968C96A8842C8D301274B
:10231000C6E700BF13480068C06A00EB80001049A0
:1023200051F82000012800D9012704E00E48006878
:10233000401C0D4908600D48006800B1012738466F
:10234000BDE8F081700000204C0000203C0000201F
:1023500040000020600000206800002050000020A5
:102360004028002038000020580000205C00002099
:1023700070B505462C4600261DB3206D401E206515
:10238000E16CE06A88421CD0206DD0B9201DFFF7B7
:102390000CFAE06CE062E06AC0F13800A0610A4922
:1023A000E06A0968884202D90749E06A0860E16A80
:1023B00001EB8101054A02EB8100211DFFF74DFA77
:1023C0000126304670BD000050000020402800204B
:1023D00070B505462C460026002D42D02249E06A01
:1023E0000968C96A884235D2A06900F0004028B95E
:1023F0001D480068C06AC0F13800A061E16A01EBC5
:1024000081011A4A02EB81016069884201D10120F1
:1024100000E00020C0B1201DFFF7C7F91248006896
:10242000C06AE0621249E06A0968884202D910492C
:10243000E06A0860E16A01EB81010C4A02EB81006D
:10244000211DFFF70AFA03E007480068C06AE0624E
:10245000012606E00449E06C0968C96A884200D296
:102460000126304670BD00003800002040280020C2
:102470005000002070B50646F068C46804F11800EA
:10248000FFF793F915480068A0B9201DFFF78DF9F3
:102490001349E06A0968884202D91149E06A086074
:1024A000E16A01EB81010F4A02EB8100211DFFF778
:1024B000D4F904E004F118010B48FFF7CEF90B49F9
:1024C000E06A0968C96A884204D9012501200849DF
:1024D000086000E00025284670BD00007000002064
:1024E0005000002040280020C82C00203800002088
:1024F0005C00002070B500240026FFF7BBF92E48D1
:102500000068401E2C4908600846006800284ED12B
:102510002A48006800284AD023E02948C068C468D7
:1025200004F11800FFF741F9201DFFF73EF9254996
:10253000E06A0968884202D92249E06A0860E16AD3
:1025400001EB8101204A02EB8100211DFFF785F993
:102550001E49E06A0968C96A884202D301201C4901
:1025600008601748006808B9012000E00020002832
:10257000D3D00CB1FEF762FF1648056865B100BF05
:10258000FFF76AFE10B10120114908606D1E002D91
:10259000F6D100200F4908600D48006838B10126C7
:1025A00030070D490860BFF34F8FBFF36F8FFFF700
:1025B00073F9304670BD0000700000204800002014
:1025C000C82C0020500000204028002038000020A7
:1025D0005C0000205800002004ED00E02DE9FC47DD
:1025E00005460E4617469846DDF828902C20FEF743
:1025F000F1FF044654B1002084F8280043463A46CF
:1026000031462846CDE90094FEF75DFD2046BDE841
:10261000FC872DE9FC4706460F4690469946DDE9C2
:102620000AA52C4654B1022084F828004B464246A5
:1026300039463046CDE900A4FEF745FD2046BDE809
:10264000FC87000010B586B00024FEF7A1FB1048FF
:102650000068D0B100200590049003AA04A905A841
:10266000FFF7C4F82822DDE904100023CDE900219A
:10267000029008A10948039AFFF7B0FD08490860D5
:102680000846006800B1012400BF204606B010BD16
:102690007C000020546D7220537663003B150008C7
:1026A000800000202DE9FF4705460C4616461F46D0
:1026B000DDF830804FF000091448006810B3009432
:1026C00001960295062C15DAFFF7B0FD022808D115
:1026D0000023424669460D480068FFF767FB8146C4
:1026E00010E000231A46694608480068FFF75EFBC1
:1026F000814607E000233A46694604480068FFF730
:10270000E1FB8146484604B0BDE8F0877C0000202C
:10271000F108000800000000000000008800002010
:102720002C00000001000000040000002000000058
:102730008000000000000000000000000000000019
:102740000000000000000000140000000500000070
:102750007027000800000020880000002801000801
:10276000F827000888000020A83300004401000872
:10277000000000000000000000A24A040000000069
:102780000000000001020304060708090000000021
:102790000000000000000000000000000000000039
:1027A00000000000AAAAAAAA000000000000000081
:1027B0000000000000000000000000000000000019
:1027C0000000000000000000000000000000000009
:1027D00000000000000000000000000000000000F9
:1027E00000000000000000000000000000000000E9
:0827F0000000000000000000E1
:0400000508000229C4
:00000001FF
